{
  "_format": "hh-sol-artifact-1",
  "contractName": "FacilityTypeManagement",
  "sourceName": "contracts/FacilityTypeManagement.sol",
  "abi": [
    {
      "inputs": [],
      "stateMutability": "nonpayable",
      "type": "constructor"
    },
    {
      "inputs": [],
      "name": "AccessControlBadConfirmation",
      "type": "error"
    },
    {
      "inputs": [
        {
          "internalType": "address",
          "name": "account",
          "type": "address"
        },
        {
          "internalType": "bytes32",
          "name": "neededRole",
          "type": "bytes32"
        }
      ],
      "name": "AccessControlUnauthorizedAccount",
      "type": "error"
    },
    {
      "inputs": [],
      "name": "InvalidCapacity",
      "type": "error"
    },
    {
      "inputs": [
        {
          "internalType": "string",
          "name": "typeName",
          "type": "string"
        }
      ],
      "name": "TypeNameAlreadyExists",
      "type": "error"
    },
    {
      "inputs": [
        {
          "internalType": "uint256",
          "name": "typeId",
          "type": "uint256"
        }
      ],
      "name": "TypeNotFound",
      "type": "error"
    },
    {
      "inputs": [
        {
          "internalType": "address",
          "name": "account",
          "type": "address"
        }
      ],
      "name": "UnauthorizedAccess",
      "type": "error"
    },
    {
      "anonymous": false,
      "inputs": [
        {
          "indexed": true,
          "internalType": "uint256",
          "name": "typeId",
          "type": "uint256"
        },
        {
          "indexed": false,
          "internalType": "string",
          "name": "typeName",
          "type": "string"
        },
        {
          "indexed": true,
          "internalType": "address",
          "name": "addedBy",
          "type": "address"
        }
      ],
      "name": "FacilityTypeAdded",
      "type": "event"
    },
    {
      "anonymous": false,
      "inputs": [
        {
          "indexed": true,
          "internalType": "uint256",
          "name": "typeId",
          "type": "uint256"
        },
        {
          "indexed": true,
          "internalType": "address",
          "name": "deletedBy",
          "type": "address"
        }
      ],
      "name": "FacilityTypeDeleted",
      "type": "event"
    },
    {
      "anonymous": false,
      "inputs": [
        {
          "indexed": true,
          "internalType": "uint256",
          "name": "typeId",
          "type": "uint256"
        },
        {
          "indexed": true,
          "internalType": "address",
          "name": "updatedBy",
          "type": "address"
        }
      ],
      "name": "FacilityTypeUpdated",
      "type": "event"
    },
    {
      "anonymous": false,
      "inputs": [
        {
          "indexed": true,
          "internalType": "bytes32",
          "name": "role",
          "type": "bytes32"
        },
        {
          "indexed": true,
          "internalType": "bytes32",
          "name": "previousAdminRole",
          "type": "bytes32"
        },
        {
          "indexed": true,
          "internalType": "bytes32",
          "name": "newAdminRole",
          "type": "bytes32"
        }
      ],
      "name": "RoleAdminChanged",
      "type": "event"
    },
    {
      "anonymous": false,
      "inputs": [
        {
          "indexed": true,
          "internalType": "bytes32",
          "name": "role",
          "type": "bytes32"
        },
        {
          "indexed": true,
          "internalType": "address",
          "name": "account",
          "type": "address"
        },
        {
          "indexed": true,
          "internalType": "address",
          "name": "sender",
          "type": "address"
        }
      ],
      "name": "RoleGranted",
      "type": "event"
    },
    {
      "anonymous": false,
      "inputs": [
        {
          "indexed": true,
          "internalType": "bytes32",
          "name": "role",
          "type": "bytes32"
        },
        {
          "indexed": true,
          "internalType": "address",
          "name": "account",
          "type": "address"
        },
        {
          "indexed": true,
          "internalType": "address",
          "name": "sender",
          "type": "address"
        }
      ],
      "name": "RoleRevoked",
      "type": "event"
    },
    {
      "inputs": [],
      "name": "ADMIN_ROLE",
      "outputs": [
        {
          "internalType": "bytes32",
          "name": "",
          "type": "bytes32"
        }
      ],
      "stateMutability": "view",
      "type": "function"
    },
    {
      "inputs": [],
      "name": "DEFAULT_ADMIN_ROLE",
      "outputs": [
        {
          "internalType": "bytes32",
          "name": "",
          "type": "bytes32"
        }
      ],
      "stateMutability": "view",
      "type": "function"
    },
    {
      "inputs": [],
      "name": "MANAGER_ROLE",
      "outputs": [
        {
          "internalType": "bytes32",
          "name": "",
          "type": "bytes32"
        }
      ],
      "stateMutability": "view",
      "type": "function"
    },
    {
      "inputs": [
        {
          "internalType": "string",
          "name": "_typeName",
          "type": "string"
        },
        {
          "internalType": "string",
          "name": "_description",
          "type": "string"
        },
        {
          "internalType": "uint256",
          "name": "_capacity",
          "type": "uint256"
        }
      ],
      "name": "addFacilityType",
      "outputs": [
        {
          "internalType": "uint256",
          "name": "",
          "type": "uint256"
        }
      ],
      "stateMutability": "nonpayable",
      "type": "function"
    },
    {
      "inputs": [
        {
          "internalType": "uint256",
          "name": "_typeId",
          "type": "uint256"
        }
      ],
      "name": "deleteFacilityType",
      "outputs": [],
      "stateMutability": "nonpayable",
      "type": "function"
    },
    {
      "inputs": [
        {
          "internalType": "uint256",
          "name": "",
          "type": "uint256"
        }
      ],
      "name": "facilityTypes",
      "outputs": [
        {
          "internalType": "uint256",
          "name": "typeId",
          "type": "uint256"
        },
        {
          "internalType": "string",
          "name": "typeName",
          "type": "string"
        },
        {
          "internalType": "string",
          "name": "description",
          "type": "string"
        },
        {
          "internalType": "uint256",
          "name": "capacity",
          "type": "uint256"
        },
        {
          "internalType": "bool",
          "name": "isActive",
          "type": "bool"
        }
      ],
      "stateMutability": "view",
      "type": "function"
    },
    {
      "inputs": [
        {
          "internalType": "uint256",
          "name": "_typeId",
          "type": "uint256"
        }
      ],
      "name": "getFacilityType",
      "outputs": [
        {
          "internalType": "string",
          "name": "typeName",
          "type": "string"
        },
        {
          "internalType": "string",
          "name": "description",
          "type": "string"
        },
        {
          "internalType": "uint256",
          "name": "capacity",
          "type": "uint256"
        },
        {
          "internalType": "bool",
          "name": "isActive",
          "type": "bool"
        }
      ],
      "stateMutability": "view",
      "type": "function"
    },
    {
      "inputs": [
        {
          "internalType": "bytes32",
          "name": "role",
          "type": "bytes32"
        }
      ],
      "name": "getRoleAdmin",
      "outputs": [
        {
          "internalType": "bytes32",
          "name": "",
          "type": "bytes32"
        }
      ],
      "stateMutability": "view",
      "type": "function"
    },
    {
      "inputs": [
        {
          "internalType": "address",
          "name": "account",
          "type": "address"
        }
      ],
      "name": "grantManagerRole",
      "outputs": [],
      "stateMutability": "nonpayable",
      "type": "function"
    },
    {
      "inputs": [
        {
          "internalType": "bytes32",
          "name": "role",
          "type": "bytes32"
        },
        {
          "internalType": "address",
          "name": "account",
          "type": "address"
        }
      ],
      "name": "grantRole",
      "outputs": [],
      "stateMutability": "nonpayable",
      "type": "function"
    },
    {
      "inputs": [
        {
          "internalType": "bytes32",
          "name": "role",
          "type": "bytes32"
        },
        {
          "internalType": "address",
          "name": "account",
          "type": "address"
        }
      ],
      "name": "hasRole",
      "outputs": [
        {
          "internalType": "bool",
          "name": "",
          "type": "bool"
        }
      ],
      "stateMutability": "view",
      "type": "function"
    },
    {
      "inputs": [
        {
          "internalType": "bytes32",
          "name": "role",
          "type": "bytes32"
        },
        {
          "internalType": "address",
          "name": "callerConfirmation",
          "type": "address"
        }
      ],
      "name": "renounceRole",
      "outputs": [],
      "stateMutability": "nonpayable",
      "type": "function"
    },
    {
      "inputs": [
        {
          "internalType": "address",
          "name": "account",
          "type": "address"
        }
      ],
      "name": "revokeManagerRole",
      "outputs": [],
      "stateMutability": "nonpayable",
      "type": "function"
    },
    {
      "inputs": [
        {
          "internalType": "bytes32",
          "name": "role",
          "type": "bytes32"
        },
        {
          "internalType": "address",
          "name": "account",
          "type": "address"
        }
      ],
      "name": "revokeRole",
      "outputs": [],
      "stateMutability": "nonpayable",
      "type": "function"
    },
    {
      "inputs": [
        {
          "internalType": "bytes4",
          "name": "interfaceId",
          "type": "bytes4"
        }
      ],
      "name": "supportsInterface",
      "outputs": [
        {
          "internalType": "bool",
          "name": "",
          "type": "bool"
        }
      ],
      "stateMutability": "view",
      "type": "function"
    },
    {
      "inputs": [
        {
          "internalType": "uint256",
          "name": "_typeId",
          "type": "uint256"
        },
        {
          "internalType": "string",
          "name": "_newTypeName",
          "type": "string"
        },
        {
          "internalType": "string",
          "name": "_newDescription",
          "type": "string"
        },
        {
          "internalType": "uint256",
          "name": "_newCapacity",
          "type": "uint256"
        }
      ],
      "name": "updateFacilityType",
      "outputs": [],
      "stateMutability": "nonpayable",
      "type": "function"
    }
  ],
  "bytecode": "0x608060405234801561001057600080fd5b506100246000801b336100ab60201b60201c565b506100557fa49807205ce4d355092ef5a8a18f56e8913cf4a201fbe287825b095693c21775336100ab60201b60201c565b506100a67f241ecf16d79d0f8dbfb92cbc07fe17840425976cf0667f022fe9877caa831b087fa49807205ce4d355092ef5a8a18f56e8913cf4a201fbe287825b095693c217756101a860201b60201c565b61029a565b60006100bd838361020960201b60201c565b61019d57600160008085815260200190815260200160002060000160008473ffffffffffffffffffffffffffffffffffffffff1673ffffffffffffffffffffffffffffffffffffffff16815260200190815260200160002060006101000a81548160ff02191690831515021790555061013a61027360201b60201c565b73ffffffffffffffffffffffffffffffffffffffff168273ffffffffffffffffffffffffffffffffffffffff16847f2f8788117e7eff1d82e926ec794901d17c78024a50270940304540a733656f0d60405160405180910390a4600190506101a2565b600090505b92915050565b60006101b98361027b60201b60201c565b905081600080858152602001908152602001600020600101819055508181847fbd79b86ffe0ab8e8776151514217cd7cacd52c909f66475c3af44e129f0b00ff60405160405180910390a4505050565b600080600084815260200190815260200160002060000160008373ffffffffffffffffffffffffffffffffffffffff1673ffffffffffffffffffffffffffffffffffffffff16815260200190815260200160002060009054906101000a900460ff16905092915050565b600033905090565b6000806000838152602001908152602001600020600101549050919050565b611e98806102a96000396000f3fe608060405234801561001057600080fd5b50600436106101005760003560e01c806375b238fc11610097578063be4dc94f11610066578063be4dc94f146102d8578063d547741f146102f4578063ddb62ed014610310578063ec87621c1461032c57610100565b806375b238fc1461023957806390c4838d1461025757806391d148541461028a578063a217fddf146102ba57610100565b806326e885e3116100d357806326e885e3146101b55780632f2ff15d146101d157806336568abe146101ed5780633d252b4e1461020957610100565b806301ffc9a7146101055780631a0a15db146101355780631d39ab4a14610169578063248a9ca314610185575b600080fd5b61011f600480360381019061011a919061145a565b61034a565b60405161012c91906114a2565b60405180910390f35b61014f600480360381019061014a91906114f3565b6103c4565b6040516101609594939291906115bf565b60405180910390f35b610183600480360381019061017e9190611755565b610517565b005b61019f600480360381019061019a919061182a565b610899565b6040516101ac9190611866565b60405180910390f35b6101cf60048036038101906101ca91906118df565b6108b8565b005b6101eb60048036038101906101e6919061190c565b610910565b005b6102076004803603810190610202919061190c565b610932565b005b610223600480360381019061021e919061194c565b6109ad565b60405161023091906119d7565b60405180910390f35b610241610c47565b60405161024e9190611866565b60405180910390f35b610271600480360381019061026c91906114f3565b610c6b565b60405161028194939291906119f2565b60405180910390f35b6102a4600480360381019061029f919061190c565b610dcf565b6040516102b191906114a2565b60405180910390f35b6102c2610e39565b6040516102cf9190611866565b60405180910390f35b6102f260048036038101906102ed91906118df565b610e40565b005b61030e6004803603810190610309919061190c565b610e98565b005b61032a600480360381019061032591906114f3565b610eba565b005b610334611110565b6040516103419190611866565b60405180910390f35b60007f7965db0b000000000000000000000000000000000000000000000000000000007bffffffffffffffffffffffffffffffffffffffffffffffffffffffff1916827bffffffffffffffffffffffffffffffffffffffffffffffffffffffff191614806103bd57506103bc82611134565b5b9050919050565b60016020528060005260406000206000915090508060000154908060010180546103ed90611a74565b80601f016020809104026020016040519081016040528092919081815260200182805461041990611a74565b80156104665780601f1061043b57610100808354040283529160200191610466565b820191906000526020600020905b81548152906001019060200180831161044957829003601f168201915b50505050509080600201805461047b90611a74565b80601f01602080910402602001604051908101604052809291908181526020018280546104a790611a74565b80156104f45780601f106104c9576101008083540402835291602001916104f4565b820191906000526020600020905b8154815290600101906020018083116104d757829003601f168201915b5050505050908060030154908060040160009054906101000a900460ff16905085565b6105417fa49807205ce4d355092ef5a8a18f56e8913cf4a201fbe287825b095693c2177533610dcf565b15801561057557506105737f241ecf16d79d0f8dbfb92cbc07fe17840425976cf0667f022fe9877caa831b0833610dcf565b155b156105b757336040517fdccef9640000000000000000000000000000000000000000000000000000000081526004016105ae9190611ab4565b60405180910390fd5b6001600085815260200190815260200160002060040160009054906101000a900460ff1661061c57836040517f7400d48b00000000000000000000000000000000000000000000000000000000815260040161061391906119d7565b60405180910390fd5b60008103610656576040517f31278a8700000000000000000000000000000000000000000000000000000000815260040160405180910390fd5b600060016000868152602001908152602001600020600101805461067990611a74565b80601f01602080910402602001604051908101604052809291908181526020018280546106a590611a74565b80156106f25780601f106106c7576101008083540402835291602001916106f2565b820191906000526020600020905b8154815290600101906020018083116106d557829003601f168201915b5050505050905080805190602001208480519060200120146107eb5760028460405161071e9190611b0b565b908152602001604051809103902060009054906101000a900460ff161561077c57836040517f86657ca00000000000000000000000000000000000000000000000000000000081526004016107739190611b22565b60405180910390fd5b600060028260405161078e9190611b0b565b908152602001604051809103902060006101000a81548160ff02191690831515021790555060016002856040516107c59190611b0b565b908152602001604051809103902060006101000a81548160ff0219169083151502179055505b8360016000878152602001908152602001600020600101908161080e9190611cf0565b50826001600087815260200190815260200160002060020190816108329190611cf0565b508160016000878152602001908152602001600020600301819055503373ffffffffffffffffffffffffffffffffffffffff16857f13df5474ff24632747bb73d1e31a983d1a8310535a08ad38a0e9fcc28c6f559860405160405180910390a35050505050565b6000806000838152602001908152602001600020600101549050919050565b7fa49807205ce4d355092ef5a8a18f56e8913cf4a201fbe287825b095693c217756108e28161119e565b61090c7f241ecf16d79d0f8dbfb92cbc07fe17840425976cf0667f022fe9877caa831b0883610910565b5050565b61091982610899565b6109228161119e565b61092c83836111b2565b50505050565b61093a6112a3565b73ffffffffffffffffffffffffffffffffffffffff168173ffffffffffffffffffffffffffffffffffffffff161461099e576040517f6697b23200000000000000000000000000000000000000000000000000000000815260040160405180910390fd5b6109a882826112ab565b505050565b60006109d97fa49807205ce4d355092ef5a8a18f56e8913cf4a201fbe287825b095693c2177533610dcf565b158015610a0d5750610a0b7f241ecf16d79d0f8dbfb92cbc07fe17840425976cf0667f022fe9877caa831b0833610dcf565b155b15610a4f57336040517fdccef964000000000000000000000000000000000000000000000000000000008152600401610a469190611ab4565b60405180910390fd5b600284604051610a5f9190611b0b565b908152602001604051809103902060009054906101000a900460ff1615610abd57836040517f86657ca0000000000000000000000000000000000000000000000000000000008152600401610ab49190611b22565b60405180910390fd5b60008203610af7576040517f31278a8700000000000000000000000000000000000000000000000000000000815260040160405180910390fd5b60036000815480929190610b0a90611df1565b91905055506040518060a00160405280600354815260200185815260200184815260200183815260200160011515815250600160006003548152602001908152602001600020600082015181600001556020820151816001019081610b6f9190611cf0565b506040820151816002019081610b859190611cf0565b506060820151816003015560808201518160040160006101000a81548160ff0219169083151502179055509050506001600285604051610bc59190611b0b565b908152602001604051809103902060006101000a81548160ff0219169083151502179055503373ffffffffffffffffffffffffffffffffffffffff166003547fa6b41a9b5af1f0538ae06fe3ca04f3b057719f848c7e268f2dd6d7e398c3c41d86604051610c339190611b22565b60405180910390a360035490509392505050565b7fa49807205ce4d355092ef5a8a18f56e8913cf4a201fbe287825b095693c2177581565b6060806000806000600160008781526020019081526020016000209050806001018160020182600301548360040160009054906101000a900460ff16838054610cb390611a74565b80601f0160208091040260200160405190810160405280929190818152602001828054610cdf90611a74565b8015610d2c5780601f10610d0157610100808354040283529160200191610d2c565b820191906000526020600020905b815481529060010190602001808311610d0f57829003601f168201915b50505050509350828054610d3f90611a74565b80601f0160208091040260200160405190810160405280929190818152602001828054610d6b90611a74565b8015610db85780601f10610d8d57610100808354040283529160200191610db8565b820191906000526020600020905b815481529060010190602001808311610d9b57829003601f168201915b505050505092509450945094509450509193509193565b600080600084815260200190815260200160002060000160008373ffffffffffffffffffffffffffffffffffffffff1673ffffffffffffffffffffffffffffffffffffffff16815260200190815260200160002060009054906101000a900460ff16905092915050565b6000801b81565b7fa49807205ce4d355092ef5a8a18f56e8913cf4a201fbe287825b095693c21775610e6a8161119e565b610e947f241ecf16d79d0f8dbfb92cbc07fe17840425976cf0667f022fe9877caa831b0883610e98565b5050565b610ea182610899565b610eaa8161119e565b610eb483836112ab565b50505050565b610ee47fa49807205ce4d355092ef5a8a18f56e8913cf4a201fbe287825b095693c2177533610dcf565b158015610f185750610f167f241ecf16d79d0f8dbfb92cbc07fe17840425976cf0667f022fe9877caa831b0833610dcf565b155b15610f5a57336040517fdccef964000000000000000000000000000000000000000000000000000000008152600401610f519190611ab4565b60405180910390fd5b6001600082815260200190815260200160002060040160009054906101000a900460ff16610fbf57806040517f7400d48b000000000000000000000000000000000000000000000000000000008152600401610fb691906119d7565b60405180910390fd5b6000600160008381526020019081526020016000206001018054610fe290611a74565b80601f016020809104026020016040519081016040528092919081815260200182805461100e90611a74565b801561105b5780601f106110305761010080835404028352916020019161105b565b820191906000526020600020905b81548152906001019060200180831161103e57829003601f168201915b5050505050905060006002826040516110749190611b0b565b908152602001604051809103902060006101000a81548160ff02191690831515021790555060006001600084815260200190815260200160002060040160006101000a81548160ff0219169083151502179055503373ffffffffffffffffffffffffffffffffffffffff16827f54debbbf4aad70d62a56b66b580180ddb5dad5ba1ae6ae9464f294d70fd6f29360405160405180910390a35050565b7f241ecf16d79d0f8dbfb92cbc07fe17840425976cf0667f022fe9877caa831b0881565b60007f01ffc9a7000000000000000000000000000000000000000000000000000000007bffffffffffffffffffffffffffffffffffffffffffffffffffffffff1916827bffffffffffffffffffffffffffffffffffffffffffffffffffffffff1916149050919050565b6111af816111aa6112a3565b61139d565b50565b60006111be8383610dcf565b61129857600160008085815260200190815260200160002060000160008473ffffffffffffffffffffffffffffffffffffffff1673ffffffffffffffffffffffffffffffffffffffff16815260200190815260200160002060006101000a81548160ff0219169083151502179055506112356112a3565b73ffffffffffffffffffffffffffffffffffffffff168273ffffffffffffffffffffffffffffffffffffffff16847f2f8788117e7eff1d82e926ec794901d17c78024a50270940304540a733656f0d60405160405180910390a46001905061129d565b600090505b92915050565b600033905090565b60006112b78383610dcf565b1561139257600080600085815260200190815260200160002060000160008473ffffffffffffffffffffffffffffffffffffffff1673ffffffffffffffffffffffffffffffffffffffff16815260200190815260200160002060006101000a81548160ff02191690831515021790555061132f6112a3565b73ffffffffffffffffffffffffffffffffffffffff168273ffffffffffffffffffffffffffffffffffffffff16847ff6391f5c32d9c69d2a47ea670b442974b53935d1edc7fd64eb21e047a839171b60405160405180910390a460019050611397565b600090505b92915050565b6113a78282610dcf565b6113ea5780826040517fe2517d3f0000000000000000000000000000000000000000000000000000000081526004016113e1929190611e39565b60405180910390fd5b5050565b6000604051905090565b600080fd5b600080fd5b60007fffffffff0000000000000000000000000000000000000000000000000000000082169050919050565b61143781611402565b811461144257600080fd5b50565b6000813590506114548161142e565b92915050565b6000602082840312156114705761146f6113f8565b5b600061147e84828501611445565b91505092915050565b60008115159050919050565b61149c81611487565b82525050565b60006020820190506114b76000830184611493565b92915050565b6000819050919050565b6114d0816114bd565b81146114db57600080fd5b50565b6000813590506114ed816114c7565b92915050565b600060208284031215611509576115086113f8565b5b6000611517848285016114de565b91505092915050565b611529816114bd565b82525050565b600081519050919050565b600082825260208201905092915050565b60005b8381101561156957808201518184015260208101905061154e565b60008484015250505050565b6000601f19601f8301169050919050565b60006115918261152f565b61159b818561153a565b93506115ab81856020860161154b565b6115b481611575565b840191505092915050565b600060a0820190506115d46000830188611520565b81810360208301526115e68187611586565b905081810360408301526115fa8186611586565b90506116096060830185611520565b6116166080830184611493565b9695505050505050565b600080fd5b600080fd5b7f4e487b7100000000000000000000000000000000000000000000000000000000600052604160045260246000fd5b61166282611575565b810181811067ffffffffffffffff821117156116815761168061162a565b5b80604052505050565b60006116946113ee565b90506116a08282611659565b919050565b600067ffffffffffffffff8211156116c0576116bf61162a565b5b6116c982611575565b9050602081019050919050565b82818337600083830152505050565b60006116f86116f3846116a5565b61168a565b90508281526020810184848401111561171457611713611625565b5b61171f8482856116d6565b509392505050565b600082601f83011261173c5761173b611620565b5b813561174c8482602086016116e5565b91505092915050565b6000806000806080858703121561176f5761176e6113f8565b5b600061177d878288016114de565b945050602085013567ffffffffffffffff81111561179e5761179d6113fd565b5b6117aa87828801611727565b935050604085013567ffffffffffffffff8111156117cb576117ca6113fd565b5b6117d787828801611727565b92505060606117e8878288016114de565b91505092959194509250565b6000819050919050565b611807816117f4565b811461181257600080fd5b50565b600081359050611824816117fe565b92915050565b6000602082840312156118405761183f6113f8565b5b600061184e84828501611815565b91505092915050565b611860816117f4565b82525050565b600060208201905061187b6000830184611857565b92915050565b600073ffffffffffffffffffffffffffffffffffffffff82169050919050565b60006118ac82611881565b9050919050565b6118bc816118a1565b81146118c757600080fd5b50565b6000813590506118d9816118b3565b92915050565b6000602082840312156118f5576118f46113f8565b5b6000611903848285016118ca565b91505092915050565b60008060408385031215611923576119226113f8565b5b600061193185828601611815565b9250506020611942858286016118ca565b9150509250929050565b600080600060608486031215611965576119646113f8565b5b600084013567ffffffffffffffff811115611983576119826113fd565b5b61198f86828701611727565b935050602084013567ffffffffffffffff8111156119b0576119af6113fd565b5b6119bc86828701611727565b92505060406119cd868287016114de565b9150509250925092565b60006020820190506119ec6000830184611520565b92915050565b60006080820190508181036000830152611a0c8187611586565b90508181036020830152611a208186611586565b9050611a2f6040830185611520565b611a3c6060830184611493565b95945050505050565b7f4e487b7100000000000000000000000000000000000000000000000000000000600052602260045260246000fd5b60006002820490506001821680611a8c57607f821691505b602082108103611a9f57611a9e611a45565b5b50919050565b611aae816118a1565b82525050565b6000602082019050611ac96000830184611aa5565b92915050565b600081905092915050565b6000611ae58261152f565b611aef8185611acf565b9350611aff81856020860161154b565b80840191505092915050565b6000611b178284611ada565b915081905092915050565b60006020820190508181036000830152611b3c8184611586565b905092915050565b60008190508160005260206000209050919050565b60006020601f8301049050919050565b600082821b905092915050565b600060088302611ba67fffffffffffffffffffffffffffffffffffffffffffffffffffffffffffffffff82611b69565b611bb08683611b69565b95508019841693508086168417925050509392505050565b6000819050919050565b6000611bed611be8611be3846114bd565b611bc8565b6114bd565b9050919050565b6000819050919050565b611c0783611bd2565b611c1b611c1382611bf4565b848454611b76565b825550505050565b600090565b611c30611c23565b611c3b818484611bfe565b505050565b5b81811015611c5f57611c54600082611c28565b600181019050611c41565b5050565b601f821115611ca457611c7581611b44565b611c7e84611b59565b81016020851015611c8d578190505b611ca1611c9985611b59565b830182611c40565b50505b505050565b600082821c905092915050565b6000611cc760001984600802611ca9565b1980831691505092915050565b6000611ce08383611cb6565b9150826002028217905092915050565b611cf98261152f565b67ffffffffffffffff811115611d1257611d1161162a565b5b611d1c8254611a74565b611d27828285611c63565b600060209050601f831160018114611d5a5760008415611d48578287015190505b611d528582611cd4565b865550611dba565b601f198416611d6886611b44565b60005b82811015611d9057848901518255600182019150602085019450602081019050611d6b565b86831015611dad5784890151611da9601f891682611cb6565b8355505b6001600288020188555050505b505050505050565b7f4e487b7100000000000000000000000000000000000000000000000000000000600052601160045260246000fd5b6000611dfc826114bd565b91507fffffffffffffffffffffffffffffffffffffffffffffffffffffffffffffffff8203611e2e57611e2d611dc2565b5b600182019050919050565b6000604082019050611e4e6000830185611aa5565b611e5b6020830184611857565b939250505056fea2646970667358221220f525b13246e3b215505e9eaf8900b40c184bd1521d96aed3160c4e299302574164736f6c634300081c0033",
  "linkReferences": {},
  "deployedLinkReferences": {}
}